:03000000020006F5
:09005F00756A01756B00020003D3
:0300030002027482
:20006800AE82AF837C007D00C3EC9EED9F501B7A707B00EA24FFF8EB34FFF988028903E85A
:200088004970F00CBC00E10D80DE22AF82C2A17E08C2A2EF33920092A08F05ED2DFFD2A2F4
:2000A8001EBE010050EB22AF82C2A18F82120093852182120093D2A12275210075820912AA
:2000C80000AF75210375820A1200AF75210775820B1200AF75210175820C1200AF752100BD
:2000E80075820F0200AF8522217582011200AF8523217582021200AF852421758203120067
:20010800AF8525217582041200AF8526217582051200AF8527217582061200AF852821754A
:2001280082071200AF8529217582080200AF22AD82AE83AFF0E56A14242AF9870430931EB7
:2001480030940D8C031B8D828E838FF0EB0202928C03EB24F08D828E838FF0020292309475
:200168000E8C0374102B8D828E838FF00202920C8D828E838FF0EC02029222AE6AAF6BC3B2
:20018800E49E74808FF063F08095F05016EE242AF98E05ED14242AF88605A7051EBEFF0182
:2001A8001F80DC2290006D75F0401201377E007F00C3EE956AEF6480856BF063F08095F0F6
:2001C800501BEE242AF9E7FDB56D0BC007C006120136D006D0070EBE00D70F80D4E56DB5D6
:2001E8006C12120182120183856D2A056AE4B56A09056B22120183856D2A227E007F00C391
:20020800EE9408EF64809480500DEE2422F876000EBE00EB0F80E87E007F00C3EE956AEF9C
:200228006480856BF063F08095F0503FEE242AF987058D0353030FEB2422F98704EDC4549B
:200248000FFD8DF005F07D80E4FB3392D28008A2D2EB13FBED13FDD5F0F57A00EC4205EA62
:200268004203A7050EBE00B30F80B022D293D2941200C1120182752A351202031200EE90F7
:0A02880001F41200681201AC80EFCF
:06003500E478FFF6D8FD9F
:200013007900E94400601B7A009002B1780175A000E493F2A308B8000205A0D9F4DAF275E0
:02003300A0FF2C
:1B02920020F71130F6138883A88220F509F6A8837583002280FEF280F5F0226B
:20003B007800E84400600A790175A000E4F309D8FC7800E84400600C7900900001E4F0A3C3
:04005B00D8FCD9FAFA
:0D00060075816D1202ADE5826003020003FA
:0402AD007582002234
:00000001FF
